{
    "_format": "hh-sol-artifact-1",
    "contractName": "AvaliacaoFilme",
    "sourceName": "contracts/AvaliacaoFilme.sol",
    "abi": [
        {
            "anonymous": false,
            "inputs": [
                {
                    "indexed": false,
                    "internalType": "uint256",
                    "name": "filmeId",
                    "type": "uint256"
                },
                {
                    "indexed": false,
                    "internalType": "address",
                    "name": "autor",
                    "type": "address"
                },
                {
                    "indexed": false,
                    "internalType": "uint8",
                    "name": "nota",
                    "type": "uint8"
                },
                {
                    "indexed": false,
                    "internalType": "string",
                    "name": "comentario",
                    "type": "string"
                }
            ],
            "name": "Avaliado",
            "type": "event"
        },
        {
            "inputs": [
                {
                    "internalType": "uint256",
                    "name": "",
                    "type": "uint256"
                },
                {
                    "internalType": "address",
                    "name": "",
                    "type": "address"
                }
            ],
            "name": "avaliacoes",
            "outputs": [
                {
                    "internalType": "uint8",
                    "name": "nota",
                    "type": "uint8"
                },
                {
                    "internalType": "string",
                    "name": "comentario",
                    "type": "string"
                },
                {
                    "internalType": "address",
                    "name": "autor",
                    "type": "address"
                }
            ],
            "stateMutability": "view",
            "type": "function"
        },
        {
            "inputs": [
                {
                    "internalType": "uint256",
                    "name": "filmeId",
                    "type": "uint256"
                },
                {
                    "internalType": "uint8",
                    "name": "nota",
                    "type": "uint8"
                },
                {
                    "internalType": "string",
                    "name": "comentario",
                    "type": "string"
                }
            ],
            "name": "avaliar",
            "outputs": [],
            "stateMutability": "nonpayable",
            "type": "function"
        },
        {
            "inputs": [
                {
                    "internalType": "uint256",
                    "name": "filmeId",
                    "type": "uint256"
                },
                {
                    "internalType": "address",
                    "name": "autor",
                    "type": "address"
                }
            ],
            "name": "getAvaliacao",
            "outputs": [
                {
                    "internalType": "uint8",
                    "name": "",
                    "type": "uint8"
                },
                {
                    "internalType": "string",
                    "name": "",
                    "type": "string"
                }
            ],
            "stateMutability": "view",
            "type": "function"
        }
    ],
    "bytecode": "0x608060405234801561001057600080fd5b50610d98806100206000396000f3fe608060405234801561001057600080fd5b50600436106100415760003560e01c806301e68f3a14610046578063158c4e2414610077578063a7c495d914610093575b600080fd5b610060600480360381019061005b9190610618565b6100c5565b60405161006e929190610704565b60405180910390f35b610091600480360381019061008c9190610895565b610242565b005b6100ad60048036038101906100a89190610618565b610484565b6040516100bc93929190610913565b60405180910390f35b60006060600080600086815260200190815260200160002060008573ffffffffffffffffffffffffffffffffffffffff1673ffffffffffffffffffffffffffffffffffffffff1681526020019081526020016000206040518060600160405290816000820160009054906101000a900460ff1660ff1660ff16815260200160018201805461015290610980565b80601f016020809104026020016040519081016040528092919081815260200182805461017e90610980565b80156101cb5780601f106101a0576101008083540402835291602001916101cb565b820191906000526020600020905b8154815290600101906020018083116101ae57829003601f168201915b505050505081526020016002820160009054906101000a900473ffffffffffffffffffffffffffffffffffffffff1673ffffffffffffffffffffffffffffffffffffffff1673ffffffffffffffffffffffffffffffffffffffff168152505090508060000151816020015192509250509250929050565b60018260ff161015801561025a575060058260ff1611155b610299576040517f08c379a0000000000000000000000000000000000000000000000000000000008152600401610290906109fd565b60405180910390fd5b600080600085815260200190815260200160002060003373ffffffffffffffffffffffffffffffffffffffff1673ffffffffffffffffffffffffffffffffffffffff16815260200190815260200160002060000160009054906101000a900460ff1660ff161461033e576040517f08c379a000000000000000000000000000000000000000000000000000000000815260040161033590610a69565b60405180910390fd5b60405180606001604052808360ff1681526020018281526020013373ffffffffffffffffffffffffffffffffffffffff1681525060008085815260200190815260200160002060003373ffffffffffffffffffffffffffffffffffffffff1673ffffffffffffffffffffffffffffffffffffffff16815260200190815260200160002060008201518160000160006101000a81548160ff021916908360ff16021790555060208201518160010190816103f79190610c35565b5060408201518160020160006101000a81548173ffffffffffffffffffffffffffffffffffffffff021916908373ffffffffffffffffffffffffffffffffffffffff1602179055509050507faaa2f4c6eaaf13c5cb442518741aa73757aa14923acc2e88682d98d15967b7b4833384846040516104779493929190610d16565b60405180910390a1505050565b6000602052816000526040600020602052806000526040600020600091509150508060000160009054906101000a900460ff16908060010180546104c790610980565b80601f01602080910402602001604051908101604052809291908181526020018280546104f390610980565b80156105405780601f1061051557610100808354040283529160200191610540565b820191906000526020600020905b81548152906001019060200180831161052357829003601f168201915b5050505050908060020160009054906101000a900473ffffffffffffffffffffffffffffffffffffffff16905083565b6000604051905090565b600080fd5b600080fd5b6000819050919050565b61059781610584565b81146105a257600080fd5b50565b6000813590506105b48161058e565b92915050565b600073ffffffffffffffffffffffffffffffffffffffff82169050919050565b60006105e5826105ba565b9050919050565b6105f5816105da565b811461060057600080fd5b50565b600081359050610612816105ec565b92915050565b6000806040838503121561062f5761062e61057a565b5b600061063d858286016105a5565b925050602061064e85828601610603565b9150509250929050565b600060ff82169050919050565b61066e81610658565b82525050565b600081519050919050565b600082825260208201905092915050565b60005b838110156106ae578082015181840152602081019050610693565b60008484015250505050565b6000601f19601f8301169050919050565b60006106d682610674565b6106e0818561067f565b93506106f0818560208601610690565b6106f9816106ba565b840191505092915050565b60006040820190506107196000830185610665565b818103602083015261072b81846106cb565b90509392505050565b61073d81610658565b811461074857600080fd5b50565b60008135905061075a81610734565b92915050565b600080fd5b600080fd5b7f4e487b7100000000000000000000000000000000000000000000000000000000600052604160045260246000fd5b6107a2826106ba565b810181811067ffffffffffffffff821117156107c1576107c061076a565b5b80604052505050565b60006107d4610570565b90506107e08282610799565b919050565b600067ffffffffffffffff821115610800576107ff61076a565b5b610809826106ba565b9050602081019050919050565b82818337600083830152505050565b6000610838610833846107e5565b6107ca565b90508281526020810184848401111561085457610853610765565b5b61085f848285610816565b509392505050565b600082601f83011261087c5761087b610760565b5b813561088c848260208601610825565b91505092915050565b6000806000606084860312156108ae576108ad61057a565b5b60006108bc868287016105a5565b93505060206108cd8682870161074b565b925050604084013567ffffffffffffffff8111156108ee576108ed61057f565b5b6108fa86828701610867565b9150509250925092565b61090d816105da565b82525050565b60006060820190506109286000830186610665565b818103602083015261093a81856106cb565b90506109496040830184610904565b949350505050565b7f4e487b7100000000000000000000000000000000000000000000000000000000600052602260045260246000fd5b6000600282049050600182168061099857607f821691505b6020821081036109ab576109aa610951565b5b50919050565b7f4e6f746120696e76616c69646100000000000000000000000000000000000000600082015250565b60006109e7600d8361067f565b91506109f2826109b1565b602082019050919050565b60006020820190508181036000830152610a16816109da565b9050919050565b7f4a61206176616c696f7520657373652066696c6d650000000000000000000000600082015250565b6000610a5360158361067f565b9150610a5e82610a1d565b602082019050919050565b60006020820190508181036000830152610a8281610a46565b9050919050565b60008190508160005260206000209050919050565b60006020601f8301049050919050565b600082821b905092915050565b600060088302610aeb7fffffffffffffffffffffffffffffffffffffffffffffffffffffffffffffffff82610aae565b610af58683610aae565b95508019841693508086168417925050509392505050565b6000819050919050565b6000610b32610b2d610b2884610584565b610b0d565b610584565b9050919050565b6000819050919050565b610b4c83610b17565b610b60610b5882610b39565b848454610abb565b825550505050565b600090565b610b75610b68565b610b80818484610b43565b505050565b5b81811015610ba457610b99600082610b6d565b600181019050610b86565b5050565b601f821115610be957610bba81610a89565b610bc384610a9e565b81016020851015610bd2578190505b610be6610bde85610a9e565b830182610b85565b50505b505050565b600082821c905092915050565b6000610c0c60001984600802610bee565b1980831691505092915050565b6000610c258383610bfb565b9150826002028217905092915050565b610c3e82610674565b67ffffffffffffffff811115610c5757610c5661076a565b5b610c618254610980565b610c6c828285610ba8565b600060209050601f831160018114610c9f5760008415610c8d578287015190505b610c978582610c19565b865550610cff565b601f198416610cad86610a89565b60005b82811015610cd557848901518255600182019150602085019450602081019050610cb0565b86831015610cf25784890151610cee601f891682610bfb565b8355505b6001600288020188555050505b505050505050565b610d1081610584565b82525050565b6000608082019050610d2b6000830187610d07565b610d386020830186610904565b610d456040830185610665565b8181036060830152610d5781846106cb565b90509594505050505056fea26469706673582212207c948096490cd56c347c5f6de3d1f1371ecd52d9706049aa6bf5148829e9b57664736f6c63430008120033",
    "linkReferences": {},
    "deployedLinkReferences": {}
}